:020000040800F2
:100000000008002029020008112A000861280008C1
:100010000D2A0008D50300083D310008000000004B
:10002000000000000000000000000000352A000869
:100030003904000800000000152A0008392A0008C9
:10004000430200084302000843020008430200087C
:10005000430200084302000843020008430200086C
:10006000430200084302000843020008430200085C
:100070002D04000843020008430200084302000860
:10008000430200084302000843020008430200083C
:10009000D903000843020008430200084302000895
:1000A000430200084302000843020008430200081C
:1000B00043020008012B0008430200084302000825
:1000C00043020008430200084302000843020008FC
:1000D00043020008430200084302000831310008CF
:1000E00043020008430200084302000843020008DC
:1000F00043020008430200084302000843020008CC
:1001000043020008430200084302000843020008BB
:1001100043020008430200084302000843020008AB
:10012000430200084302000843020008430200089B
:10013000430200084302000843020008430200088B
:10014000430200084302000843020008430200087B
:10015000430200084302000843020008430200086B
:10016000430200084302000843020008430200085B
:100170004302000843020008430200080000000098
:10018000430200084302000800F002F800F03CF8C7
:100190000AA090E8000C82448344AAF10107DA45E2
:1001A00001D100F031F8AFF2090EBAE80F0013F0F8
:1001B000010F18BFFB1A43F0010318474830000035
:1001C00068300000103A24BF78C878C1FAD85207C6
:1001D00024BF30C830C144BF04680C6070470000C1
:1001E0000023002400250026103A28BF78C1FBD840
:1001F000520728BF30C148BF0B6070471FB502F0DF
:10020000E4FF1FBD10B510BD00F0A9F81146FFF7BF
:10021000F5FF02F0B3FF00F0C7F803B4FFF7F2FFF9
:1002200003BC00F0CFF800000948804709480047A8
:10023000FEE7FEE7FEE7FEE7FEE7FEE7FEE7FEE796
:10024000FEE7FEE704480549054A064B70470000F3
:10025000ED2A0008890100080002002000080020A3
:10026000000400200004002053EA020C00F0698022
:100270002DE9F04B4FF00006002B1FBFB3FA83F5BA
:1002800003FA05F424FA05F65E4012BF1643B2FAEB
:1002900082F502FA05F4C5F120051EBF22FA05FC1D
:1002A00044EA0C04203556EA044C4FEA144418BFC3
:1002B000641C4FF000084FF00009904271EB030CF2
:1002C00039D3002919BFB1FA81F701FA07F6B0FA5C
:1002D00080F700FA07F6C7F120071EBF20FA07FCD7
:1002E00046EA0C062037B6FBF4FCA7EB0507103FE7
:1002F00007F01F0BCBF120062CFA06F60CFA0BFBCD
:1003000044BFB3460026202FA4BF5E464FF0000B2B
:100310005BEA060C08BF4FF0010B19EB0B0948EB29
:100320000608ABFB027C06FB02CC0BFB03CCC01B1C
:1003300071EB0C01C1E70B46024641464846BDE859
:10034000F08B13B5084318BF4FF0FF300146AFF3F1
:100350000080BDE81C407047704770477047754685
:1003600000F02CF8AE4605006946534620F0070021
:10037000854618B020B5FFF765FFBDE820404FF077
:1003800000064FF000074FF000084FF0000BAC469E
:10039000ACE8C009ACE8C009ACE8C009ACE8C009E9
:1003A00021F007018D46704710B50446AFF3008079
:1003B0002046BDE81040FFF730BF000000487047FE
:1003C0001000002001491820ABBEFEE72600020005
:1003D00070470000FEE7000040F2E800C2F20000B3
:1003E00000F0DEB910B582B040F29802C2F200020D
:1003F00040F2FF1394464CF8083F030A5070080A75
:10040000907040F2E80000244FF0080E1370D17095
:10041000C2F2000001AB6146C2E90444C2F818E030
:10042000546000F05BF802B010BD000040F2101004
:10043000C2F2000000F08CBC7047000002784378E4
:1004400063F30A22A2F580620A808278437802F080
:100450003F02520142EAD302A2F580624A80C37889
:1004600090F802C002799B0002F0010243EA9C135B
:1004700043EA8222A2F580628A804279037902F0FF
:100480000F02D20142EA5302A2F58062CA80427989
:1004900092090A724079C0F3011048727047000057
:1004A000EFF3108072B600BFFEE7000090F8202046
:1004B000013A012A08D8006800F1140200201368EC
:1004C00019431160704700BF00F1240201204FF46E
:1004D00080211368194311607047000010B590F82F
:1004E00020E0D0F800C0AEF1010EBEF1010FDCF843
:1004F00008E011D81EF0E05F18D0CEF3016EBEF117
:10050000030F1DD100F1240101204FF400020B68FC
:100510001A430A6010BD00BF00F1240101204FF40E
:1005200080220B681A430A6010BD00BF00F124014D
:1005300001204FF400120B681A430A6010BD00BF7F
:10054000012000FA0EF01860886828B14B68CC686A
:1005500044EAC303034303E00868CB6843EA40531B
:100560000CEB0E10C0F880310B69C0F88431097DA6
:10057000012905D100F5C2710B6843F480730B604B
:100580005168C0F88C11126800F5C071C0F888215C
:10059000002001220B681A430A6010BDB0B590F824
:1005A0002020013A012A2FD846F20060C4F2000050
:1005B000026842F001020260026822F47C5202608A
:1005C000D1F814E0CC694A6A0368012C43EA02229C
:1005D00002600EF01F024FF0010303FA02F2C3693A
:1005E0006FEA020C23EA0203C36113D02CBBC36879
:1005F00003EA0C03C360CB688C8844EA034300EB36
:10060000CE0423640B4611E0416A41F4802141622B
:100610000120B0BDC3681343C3600B688C8844EAF3
:10062000034300EBCE04236401F10C038C681B88A8
:1006300043EA044300EBCE04636443688D6943EAF4
:100640000204D1F810E0096A002D08BF03EA0C0487
:1006500044604369BEF1000F43EA020408BF03EAA5
:100660000C040129446102D1C1691143C1610168CF
:1006700021F0010101600020B0BD000070470000C2
:1006800010B590F82040013C012C71D8D0F800C082
:10069000002977D0DCF81040A40777D00CEB011CC0
:1006A000DCF8B0410CF5D87E14F004049460DCF85A
:1006B000B04119BFE4085460640D1460DEF80040D6
:1006C000002904F00204D460DCF8B44104F00F0403
:1006D0001461DCF8B441C4F307249461DCF8B4413C
:1006E0004FEA14445461DCF8B8211A70026802EB36
:1006F0000112D2F8B8214FEA12225A70026802EBB6
:100700000112D2F8B8214FEA12429A70026802EB45
:100710000112D2F8B8214FEA1262DA70026802EBD5
:100720000112D2F8BC211A71026802EB0112D2F850
:10073000BC214FEA12225A71026802EB0112D2F870
:10074000BC214FEA12429A71026802EB0112D2F800
:10075000BC214FEA1262DA71006814BF00F1100187
:1007600000F10C01002020220B681A430A6010BD22
:1007700000F1240101204FF480220B681A430A6023
:1007800010BD00BFDCF80C40A40787D100F12401A4
:1007900001204FF400120B681A430A6010BD0000DC
:1007A0002DE9F04F81B0044600684669D0F8049006
:1007B0008768D0F80CB0D0F810A0D0F81880F107F6
:1007C00004D1002530071DD424E000BFF90710D064
:1007D0000121BA07816009D4780700F1AF8038079A
:1007E00000F1B680204600F04BFA02E0204600F00F
:1007F00049FA0025F80500F18780F80300F1B1807F
:10080000300707D51BF0100004D0206845F40075B0
:100810001021C160700708D51BF0080005D02068C2
:100820000821C160204600F0A1F9B00706D5206874
:10083000C068800702D0204600F09AF9700607D5FC
:100840001AF0100004D0206845F480651021016181
:10085000B00608D51AF0080005D02068082101610B
:10086000204600F0D9F9F00606D520680069800717
:1008700002D0204600F0D2F9B00308D519F01000DC
:1008800005D0206810214160204600F0C9F9F0032E
:1008900008D519F0080005D02068082141602046DD
:1008A00000F0FAF9300440F19B805FEA497040F1B2
:1008B000948006F4807008EA102028435FEA88716B
:1008C000014648BF41F00201B20558BF01465FEA48
:1008D00048700D4648BF45F00405700558BF0D46E9
:1008E000300540F17A8018F0700000F07680103802
:1008F000000905286CD8DFE800F003595D616569DF
:1009000045F0080564E000BF20684FF48071BA0527
:1009100081600BD4780515D438051DD4204600F02D
:10092000B3F9F8037FF56CAF1BE000BF204600F081
:10093000ADF9F8037FF564AF13E000BF4FF4006535
:1009400058E700BF05F50055F8037FF559AF08E0FB
:100950004FF480554EE700BF05F58045F8037FF55D
:100960004FAF20684FF48031BA0381600AD4780316
:1009700010D4380314D4204600F08AF930073FF52C
:1009800041AF47E7204600F085F930073FF53AAF21
:1009900040E700BF05F5004530073FF533AF39E7C5
:1009A00005F5803530073FF52DAF33E745F01005ED
:1009B0000EE000BF45F020050AE000BF45F040050D
:1009C00006E000BF45F0800502E000BF45F48075F9
:1009D0002068816921F070018161206804214160F3
:1009E00055B1606A40EA05012046616201B0BDE888
:1009F000F04FFFF743BE00BF01B0BDE8F08F00002D
:100A0000B0B5C8B1044690F8200010B9204600F0F7
:100A100071F82068016841F00101016000F068FC94
:100A2000054600BF20684168C90707D100F060FC97
:100A3000401B0B28F6D312E00120B0BD016821F065
:100A40000201016000F054FC054600BF20684168C7
:100A500089070DD500F04CFC401B0B28F6D3606ACB
:100A6000052140F400306062012084F82010B0BD00
:100A7000217E0268012922F0800208BF80320260D4
:100A8000617E0268012922F0400208BF4032026004
:100A9000A17E0268012922F0200208BF20320260F4
:100AA000E17E0268012922F0100218BF10320260B4
:100AB000217F0268012922F0080208BF0832026083
:100AC000617F0268012922F0040208BF043202603B
:100AD000D4E901C2D4E9033561691A432A431143B9
:100AE000ACF101021143C16100200121606284F870
:100AF0002010B0BD80B586B0016846F20040C4F257
:100B00000000814202D006B080BD00BF002143F644
:100B100030020191C4F20202136900F5D43043F0AF
:100B200000731361136903F000730193019B01913A
:100B3000136843F0080313601268022302F00802EE
:100B40000192019ACDE9023109210322059101A9FF
:100B50000192049200F0F2FA14200021002200F029
:100B60004BFC142000F034FC06B080BD7047000040
:100B700040F2E801C2F20001884218BF704780B518
:100B80008AB040F2E800C2F2000003AA01AB0021E3
:100B9000FFF776FD039840F2062188421CD040F210
:100BA0000521884233D140F2C401C2F20001CA6873
:100BB000BDF804308868C1F80E201ABA120C0A80F9
:100BC000BDF80620C1F80A0010BA000C4880088160
:100BD000881D043113E000BF40F2C401C2F20001DD
:100BE000888ABDF80420488310BABDF80620000C9E
:100BF000488210BA000C888201F118001631BDF845
:100C000008209DF80A3012BA120C0A8003700AB04C
:100C1000BDE880407047000070470000704700004A
:100C200070470000B0B5044690F8200001281DD19F
:100C3000022084F820002068016821F00101016091
:100C400000F056FB054600BF20684068C00713D07F
:100C500000F04EFB401B0B28F6D3606A40F40030D6
:100C60006062052084F820000120B0BD606A40F475
:100C7000002060620120B0BD00206062B0BD0000B5
:100C80007047000070470000704700007047000088
:100C900070470000704700007047000070B5866D17
:100CA000044600F025FB94F83510022928D10546AA
:100CB0002068216C026822F016020260426922F06C
:100CC0008002426109B9A16C19B1016821F00801E3
:100CD0000160016821F00101016000BF2068006827
:100CE000C00715D000F004FB401B0628F6D32020D7
:100CF0006065032084F83500002184F8341070BD4D
:100D0000802060650120002184F8341070BD00BF90
:100D1000E06D3F2101FA00F0B060012084F8350059
:100D20000020002184F8341070BD000090F83510C8
:100D3000022909D1052180F835100068016821F0E9
:100D4000010101600020704780214165012070474A
:100D5000F0B581B004460020009040F20800C2F2D5
:100D600000000268D4E9166048F2B513376808211C
:100D7000C1F64E3381403942A2FB03250CD02268D4
:100D800013685B0708D5136823F004031360B16090
:100D9000616D41F00101616501218140394208D056
:100DA00022685269120604D5B160616D41F00201FA
:100DB000616504218140394208D022681268920797
:100DC00004D5B160616D41F004016165102181407D
:100DD000394217D020680268120713D5B160026843
:100DE0000168520308D4C90508D4016821F008013C
:100DF0000160216C21B905E008033FD4216C09B1E1
:100E000020468847E16D202000FA01F23A4241D0A5
:100E100020680368DB063DD5B26094F8353002687F
:100E2000052B1BD122F016020260426922F08002DB
:100E30004261226C0AB9A26C1AB1026822F008025F
:100E400002603F208840B060012084F83500216DA9
:100E50000020002984F8340052D157E00168520381
:100E600010D4C90512D4016821F0100101600120DD
:100E700084F83500002084F8340007E0A16C0029D4
:100E8000BED1BFE7080301D4616C00E0E16B09B19A
:100E900020468847606DC8B3606DC0072ED005201E
:100EA00084F835002068A90A026822F00102026075
:100EB000009A01328A4200921AD80268D20717D0EB
:100EC000009A01328A42009212D80268D2070FD0EB
:100ED000009A01328A4200920AD80268D20707D0EB
:100EE000009A01328A42009202D80268D207DFD10A
:100EF000012084F83500002084F83400E16C29B129
:100F0000204601B0BDE8F040084700BF01B0F0BD89
:100F10002DE9F041044600F0EBF9ECB10546022062
:100F200084F835000020216884F83400086820F037
:100F30000100086021680868C00711D000F0D8F9E6
:100F4000401B0528F6D9032520230320636584F878
:100F50003550BDE8F08100BF0120BDE8F08100BF41
:100F6000086848F23F02CFF21002D4E9013500EAE6
:100F7000020C04F10C0898E8C10143EA0C032B436E
:100F80001843D4E9072E304338431043626A40EADD
:100F90000E00042A40EA08031CD1206BD4E90A2E73
:100FA00040EA0E00184308604869BEF1000F20F0C7
:100FB000030040EA020040F0040C11D0B8F5005FD5
:100FC00036D0B8F1000F45D1022A46D0012A3BD0D5
:100FD00032B942E00B60486920F0070040EA020C99
:100FE00001F0F8004AF6AB221038CAF6AA22A0FB9C
:100FF00002231A0943F2FC13C0F600039A5C40F284
:10100000FF335F284FF03F00C1F814C021EA03010D
:1010100000FA02F088BF0431C4E916128860002388
:1010200001250020636584F83550BDE8F08100BFDC
:10103000032AD5D8012540230120DFE802F0030E62
:10104000030500BF82E700BFAEF1C070B0FA80F0C8
:10105000400904E0032A04D3C2D1CEF30060002883
:10106000BED0012540230120636584F83550BDE8DA
:10107000F081000070B590F834C0BCF1010F46D08B
:101080004FF0010C80F834C0D0F858E090F835C02B
:10109000BCF1010F38D14FF0020C80F835C04FF091
:1010A000000CC0F854C0D0F800C08468056CC06D56
:1010B000DCF80060402C26F48026CCF80060CCF8E8
:1010C00004300B4604BF13460A463F2101FA00F0E4
:1010D000CCF80830CCF80C20CEF80800DCF8000082
:1010E00040F01600CCF800002DB1DCF8000040F014
:1010F0000800CCF80000DCF8000040F00100CCF85B
:101100000000002070BD00BF002180F834100220D4
:1011100070BD0000B0B5044600F0EAF8054640F2A4
:101120000000C2F200000078611C18BF044400BF38
:1011300000F0DEF8401BA042FAD3B0BD2DE9F04F1D
:1011400082B000F13E4241F6004502F1FF77C4F261
:101150000205082243F6004E4FEAB726A84208BF10
:101160000722C4F2010E072E38BF4FEAB72201252D
:10117000002600274FF00008009208E008F101085F
:101180000437B8F1100F06F1020600F0A7800C68D2
:1011900005FA08F914EA090FF0D0D1F804B00322D7
:1011A0000BF0030CACF10104B240012C6FEA020A0F
:1011B00010D88268CC6802EA0A02B44022438260F6
:1011C0004268CBF3001422EA090204FA08F422432D
:1011D000426005E0BCF1030F02D14FF0030C20E0A8
:1011E000C2688C6802EA0A02B4402243BCF1020FD2
:1011F000C26016D16FF0030202EA58020244D2F82C
:1012000020C007F01C050F230C69AB402CEA030338
:1012100004FA05F52B431362D1F804B001250BF055
:10122000030C02680CFA06F302EA0A021A431BF4E2
:10123000403F0260A2D0002243F644030192C4F270
:1012400002031A684FF6084C42F480421A601A688A
:10125000CFF6FF7C02F480420192019A28F003024B
:10126000724452F80C3007F00C050F24AC40A34335
:10127000009C04FA05F52B4342F80C30DEF80820F8
:101280004B6842EA090543F60C4CDC0258BF22EADF
:101290000905CEF80850C4F2010CDCF800209C02CD
:1012A00042EA090558BF22EA0905CCF80050DEF8E9
:1012B00004209C0342EA090558BF22EA0905CEF83A
:1012C0000450DEF80020DB0342EA090558BF22EA99
:1012D0000905CEF80050012550E700BF02B0BDE877
:1012E000F08F0000002A08BF0904816170470000E8
:1012F00040F2FC10C2F200000068704740F20000AB
:1013000040F2FC11C2F20000C2F2000100780A684B
:10131000104408607047000080B543F60040C4F2F6
:101320000200016841F400710160016841F48061CC
:101330000160016841F480710160032000F088F8C9
:101340000F2000F005F800F027F8002080BD000015
:1013500070B540F20006C2F2000640F20801327891
:10136000C2F200014FF47A730968B3FBF2F204464B
:10137000B1FBF2F1084600F043FB0F2C4FF00105E2
:1013800008D838B94FF0FF3021460022002500F080
:1013900033F87460284670BD82B0002043F64001E7
:1013A0000190C4F202014A6842F480424A604A68ED
:1013B00002F480420192019A0090086840F0805047
:1013C0000860086800F080500090009802B07047F4
:1013D000002848BF7047C1B200F01F00012202FA86
:1013E00000F04EF20012CEF2000242EAD10121F0EA
:1013F000030108607047000010B54EF60C5CCEF299
:10140000000CDCF80030C3F3022E8EF00704042C2D
:1014100028BF0424BEF103034FF0FF3E0EFA04F48C
:1014200038BF0023A14399400EFA03F39A431143B6
:1014300000F00F0200F160430901043A03F5644330
:101440006244002848BF02F10C03197010BD00006F
:101450004EF60C51CEF200010A684FF6FF031A4017
:1014600060F30A2242F0806040F0FD70086070472F
:101470002DE9F041002800F08B8043F60808C4F203
:1014800002080446D8F8F8030D4600F00700884229
:1014900007D288F8F853D8F8F80300F00700A842FC
:1014A00076D12068810717D5410705D5D8F80010F7
:1014B00041F4E051C8F80010010705D5D8F8001034
:1014C00041F46041C8F80010D8F80010A26821F07B
:1014D000F0011143C8F80010C0073FD1D8F8F80355
:1014E00000F00700A84207D988F8F853D8F8F803A5
:1014F00000F00700A8424BD12068410707D5D8F873
:101500000010E26821F4E0511143C8F80010000710
:1015100008D5D8F80000216920F4604040EAC100F5
:10152000C8F8000000F07CF8D8F8001043F2E4128C
:10153000C1F30311C0F60002515C40F2080220FA28
:1015400001F140F20400C2F200000068C2F20002A1
:101550001160FFF7FDFE0020BDE8F0816068811E8C
:10156000022907D258F8081C89015CBF0120BDE898
:10157000F08111E0012807D158F8081C89035CBFED
:101580000120BDE8F08107E058F8081C890703D462
:101590000120BDE8F08100BFD8F8001021F0030160
:1015A0000843C8F80000FFF7A3FE064641F288375B
:1015B000D8F80000616800F00C00B0EB810F8DD00E
:1015C000FFF796FE801BB842F2D90320BDE8F081F8
:1015D00040F2080043F60801C2F20000C4F2020122
:1015E0000068096843F2F412C1F38221C0F60002D8
:1015F000515CC8407047000040F2080043F6080103
:10160000C2F20000C4F202010068096843F2F41259
:10161000C1F34231C0F60002515CC840704700007F
:1016200010B543F60404C4F20204606800F00C0034
:1016300008280BD0042819BF42F20040C0F2F40081
:1016400047F64000C0F27D1010BD00BF2068216841
:101650002368490247F64001C0F27D1100F03F02C5
:10166000C3F388105CBF42F20041C0F2F401A1FB59
:1016700000010023FEF7F8FD21680222C1F30141B9
:1016800002EB4101B0FBF1F010BD00002DE9F0418B
:1016900082B0002868D00446007843F60006C007F0
:1016A000C4F202060BD0B06800F00C00042840F031
:1016B0009F803068800302D56068002854D020786D
:1016C00080071AD5B06810F00C0F09D0B06800F090
:1016D0000C00082840F0A6807068400200F1A2804B
:1016E0003068800702D5E06801283DD13068216963
:1016F00020F0F80040EAC10030602078000737D4BD
:10170000207840074CD4A56955B3B06800F00C00B0
:10171000082840F0BB80012D26D07068E16900F4F4
:1017200080028A4220D1216A00F03F028A421BD106
:1017300047F6C071626A0140B1EB821F14D1A16A01
:101740004FF6FF73C903994300F44032A1F580318D
:101750008A4209D1E16A00F07060B0EB016F03D1F9
:10176000002002B0BDE8F081012002B0BDE8F081A8
:101770006069002840F20000C4F2472076D00121C1
:10178000C0F8801EFFF7B4FD054600BF706F8007EC
:10179000B6D4FFF7ADFD401B0228F7D9DDE000BF4E
:1017A000306C10F080580AD100200190306C40F06D
:1017B00080503064306C00F080500190019847F206
:1017C0000007C4F200073868C00541D4386840F407
:1017D00080703860FFF78CFD054600BF3868C00593
:1017E00036D4FFF785FD401B0228F7D9B5E000BFCE
:1017F000B06800F00C00082803D1706840023FF583
:1018000058AF6068B0F5803F07D0B0F5A02F40F02A
:101810008D80306840F480203060306840F4803043
:1018200030608DE0E068002852D00020C4F24720EC
:1018300001210160FFF75CFD054600BF30688007AD
:101840003FF554AFFFF754FD401B0228F6D984E062
:10185000A068012805D005284ED1306F40F0040063
:101860003067306F40F0010030674FE00021C0F872
:10187000801EFFF73DFD0546706F80077FF540AF86
:10188000FFF736FD401B0228F6D966E00027C4F2B8
:10189000472700203866FFF72BFD022D05460BD1A8
:1018A000306880015ED5FFF723FD401B02284FF012
:1018B0000300F5D955E700BF306880017FF550AFD0
:1018C000FFF716FD401B02284FF00300F4D948E74C
:1018D0000020C4F2472000210160FFF709FD054602
:1018E000306880077FF509AFFFF702FD401B022833
:1018F0004FF00300F4D934E7316F002821F00101E3
:101900003167316F21F0040131674DD0FFF7F0FCF2
:10191000054641F2883700BF306F800756D4FFF785
:10192000E7FC401BB842F7D917E000BF3168002838
:1019300021F480313160316821F4802131604FD051
:10194000FFF7D6FC054600BF306880033FF5B7AE11
:10195000FFF7CEFC401B6428F6D9032002B0BDE897
:10196000F08100BF04F11C052FCD084340EA82102E
:10197000D9034FF6FF729143A1F5803140EA05602B
:101980000843706001203866FFF7B2FC044600BFD0
:10199000306880013FF5E4AEFFF7AAFC001B022887
:1019A0004FF00300F4D9DCE6FFF7A2FC054641F254
:1019B000883700BF306F800708D5FFF799FC401BC0
:1019C000B8424FF00300F5D9CBE600BFB8F1000FE5
:1019D0007FF499AE306C20F08050306493E600BF05
:1019E000FFF786FC054600BF306880037FF567AED1
:1019F000FFF77EFC401B64284FF00300F4D9B0E6EB
:101A0000411E0020B0EB116F1CBF012070474EF249
:101A10001002CEF2000251604EF62351CEF20001C8
:101A2000F0230B7007219060116070477047000031
:101A30007047000010B590F83C20012A4FF00202D8
:101A400051D080F83D200268D2F804E0D2F808C0F6
:101A50000C682EF07003234341F2FF74C4F20004BB
:101A6000A24253600EDC40F2FF73C4F200039A42BC
:101A700016DCB2F1804F2BD040F20043C4F20003D9
:101A800024E000BF40F2FF33C4F201039A4213DCAA
:101A900041F60003C4F200039A4219D0002313E078
:101AA00040F60003C4F200039A4211D040F600430E
:101AB000C4F200030AE000BF44F20003C4F20103D1
:101AC0009A4205D040F20043C4F201039A4204D185
:101AD00049682CF08003194391600121002280F8AD
:101AE0003D1080F83C20104610BD0000002804BFC7
:101AF0000120704710B5044690F83D0028B9002039
:101B000084F83C00204600F01FF8022084F83D00D5
:101B10002068211D00F0FAFF012084F8460084F8B7
:101B20003E0084F83F0084F8400084F8410084F8C7
:101B3000420084F8430084F8440084F8450084F8A7
:101B40003D00002010BD000080B582B0006840F26A
:101B50000041C4F2000188421CBF02B080BD0020D9
:101B6000019043F64000C4F202000168002241F0F7
:101B7000020101600068002100F00200019001985C
:101B80001D20FFF739FC1D2002B0BDE88040FFF7A3
:101B90001FBC000090F83D1001291CBF01207047B8
:101BA000022180F83D10006841F2FF72C168C4F262
:101BB0000002904241F00101C1600DDC40F2FF7172
:101BC000C4F20001884215DCB0F1804F2AD040F207
:101BD0000041C4F2000123E040F2FF31C4F20101F0
:101BE000884213DC41F60001C4F20001884219D09A
:101BF000002113E040F60001C4F20001884211D038
:101C000040F60041C4F200010AE000BF44F20001C6
:101C1000C4F20101884205D040F20041C4F2010142
:101C2000884206D1816801F00701062904BF00201F
:101C30007047016841F00101016000207047000019
:101C400080B590F83C20012A4FF0020200F0C280DB
:101C500080F83D20D0F800C04FF67772DCF80830ED
:101C600023EA0202CCF808200B684F2B28DC1F2B3C
:101C700044DD202B45D0302B43D0402B40F0AC80AE
:101C8000D1F804E0C968DCF82030DCF8202022F02C
:101C90000102CCF82020DCF8182022F0F00242EA01
:101CA000011123F00A0242EA0E02CCF81810CCF817
:101CB0002020DCF8081041F0470121F0300180E0DD
:101CC0006F2B27DDB3F5005F48D0B3F5805F7AD086
:101CD000702B40F08180D1E901E3C968DCF808206D
:101CE00043EA0E0322F47F4243EA01211143CCF878
:101CF0000810DCF8081041F0770162E00BB1102BFE
:101D00006AD1DCF8081021F07001194341F0070195
:101D100057E000BF502B35D0602B5DD1D1F804E0E7
:101D2000C968DCF8203023F01003CCF82030DCF850
:101D30001830DCF8202023F4704322F0A00243EA9C
:101D4000013142EA0E12CCF81810CCF82020DCF851
:101D5000081041F0670121F0100132E0D1E901E300
:101D6000C968DCF8082043EA0E0322F47F4243EA04
:101D700001211143CCF80810DCF8081041F480412F
:101D80001FE000BFD1F804E0C968DCF82030DCF8BF
:101D9000202022F00102CCF82020DCF8182022F0CC
:101DA000F00242EA011123F00A0242EA0E02CCF8E4
:101DB0001810CCF82020DCF8081041F0570121F071
:101DC0002001CCF808100022012180F83D100021EC
:101DD00080F83C10104680BD0122F5E770470000F6
:101DE00010B5016804460869800744BFC8685FEA07
:101DF000807039D40869400744BFC8685FEA407002
:101E00003ED40869000744BFC8685FEA007045D443
:101E10000869C00644BFC8685FEAC0604AD4086960
:101E2000C0071CBFC8685FEAC07051D108690006CE
:101E300044BFC8685FEA006052D40869400644BFE6
:101E4000C8685FEA406053D40869800646BFC86826
:101E50005FEA806010BD6FF0200220460A61BDE895
:101E60001040FFF7E5BD00BF6FF0020008610120E0
:101E700020778869800743D02046FFF7AFFF45E011
:101E80006FF00400086102202077886910F4407F19
:101E900040D02046FFF7A2FF42E000BF6FF00800ED
:101EA000086104202077C86980073DD02046FFF7ED
:101EB00095FF3FE06FF01000086108202077C869A7
:101EC00010F4407F3AD02046FFF788FF3CE000BF87
:101ED0006FF001000861204600F03EF82168A5E798
:101EE0006FF0800008612046FFF7A0FD2168A4E79D
:101EF0006FF040000861204600F0A4F82168A3E7D5
:101F0000204600F025F8204600F024F82168002043
:101F100020776FE7204600F01BF8204600F01AF803
:101F20002168002020776CE7204600F011F8204659
:101F300000F010F821680020207769E7204600F0C3
:101F400007F8204600F006F821680020207766E7B1
:101F5000704700007047000040F27011C2F20001AB
:101F6000884218BF704780B540F2820CC2F2000C64
:101F7000BCF900109FED321A00EE101AB8EEC00A3C
:101F800080EE010A40F2C401C2F2000148890A89C8
:101F90004CF6CD4358435A43800C00EB92408A895B
:101FA000C989B3EE001A5A4320EE010A00EB9240B1
:101FB0005943BDEEC00A00EB914010EE10EA80B22A
:101FC000AEEB000000EE100A40F2B800C2F20000D2
:101FD00090ED022AB8EEC00AB8EEC22A30EE022A0C
:101FE00090ED001A90ED013ABDEEC22AB8EEC24A59
:101FF00023EE043A21EE000A30EE030ABDEEC00AD9
:1020000010EE101A46F2A712914280ED022A03DD6B
:1020100046F2A812114607E049F65862CFF6FF7261
:10202000501C8142B8BF1146BCF8020000EB800092
:10203000420008B211B2BDE88040FEF7D3B900BF3C
:102040000000044270470000704700007047000025
:10205000B0B582B0044600680168C368426901F007
:102060002F05202D03F0200506D12DB1204602B00A
:10207000BDE8B04000F064BF5FEA017C1EBF02F023
:10208000010E03F4907212EB0E0253D1226B012A5F
:1020900005D111F0100218BF13F0100236D10A0654
:1020A00022D513F080021FD094F83D1021293FD192
:1020B000A168B1F5805F03D12169002900F0728227
:1020C000216A4A1C226209784160E18C01390A04C4
:1020D000E1842DD1C16821F08001C160C16841F067
:1020E0004001C16002B0B0BD490621D513F04001E6
:1020F0001ED0C16821F04001C1602021204684F833
:102100003D1002B0BDE8B04000F0A8BB0021019135
:10211000016801914168019101994069400613D419
:10212000A08DE18DE28D002A18BF884240F0BE816B
:1021300002B0B0BDCA0718BF13F4807240F0BA8075
:102140004A0700F1BD80C2E0A16B0868426893B203
:10215000002BEDD0A08D8342EAD2E285C969B1F5AA
:10216000807F00F09D80206850E8030F216820F4F4
:10217000807041E80302DAB1206850E8030F21685B
:1021800020F4807041E8030292B1206850E8030F08
:10219000216820F4807041E803024AB1206850E8C9
:1021A000030F216820F4807041E80302002ADAD18D
:1021B000206850E8050F216820F0010041E8050281
:1021C000DAB1206850E8050F216820F0010041E8ED
:1021D000050292B1206850E8050F216820F0010047
:1021E00041E805024AB1206850E8050F216820F057
:1021F000010041E80502002ADAD1206850E8050F05
:10220000216820F0400041E80502DAB1206850E87A
:10221000050F216820F0400041E8050292B12068D6
:1022200050E8050F216820F0400041E805024AB15E
:10223000206850E8050F216820F0400041E80502C1
:10224000002ADAD1202084F83E0000202063206894
:1022500050E8030F216820F0100041E80302DAB1D2
:10226000206850E8030F216820F0100041E80302C5
:1022700092B1206850E8030F216820F0100041E877
:1022800003024AB1206850E8030F216820F01000D3
:1022900041E80302002ADAD1A06BFEF7FFFCA08D13
:1022A000E18D401A81B2204602B0BDE8B040FFF790
:1022B000CBBE00BF226C42F0010222644A0706D561
:1022C000BEF1000F03D0226C42F0020222648A07A2
:1022D00006D5BEF1000F03D0226C42F00402226446
:1022E000BCF1000F09D545EA0E02B2FA82F252099A
:1022F00003D1226C42F008022264226C002A3FF4CF
:1023000017AF11F0200118BF002D03D0204600F0B8
:1023100017FE20684069216C00F0400001F00801C0
:10232000401800F0B58000BF206850E8030F216816
:1023300020F4907041E80302BAB3206850E8030F1C
:10234000216820F4907041E8030272B3206850E8DD
:10235000030F216820F4907041E803022AB320683B
:1023600050E8030F216820F4907041E80302002A2E
:10237000DAD11AE0206850E8050F216820F001004A
:1023800041E80502DAB1206850E8050F216820F025
:10239000010041E8050292B1206850E8050F21686C
:1023A00020F0010041E805024AB1206850E8050F1D
:1023B000216820F0010041E80502002ADAD1206BF3
:1023C000012824D1206850E8030F216820F0100074
:1023D00041E80302DAB1206850E8030F216820F0D9
:1023E000100041E8030292B1206850E8030F216811
:1023F00020F0100041E803024AB1206850E8030FC2
:10240000216820F0100041E80302002ADAD12020E0
:1024100084F83E00002020632068406940063FD5D4
:10242000206850E8050F216820F0400041E80502CF
:10243000DAB1206850E8050F216820F0400041E83B
:10244000050292B1206850E8050F216820F0400095
:1024500041E805024AB1206850E8050F216820F0E4
:10246000400041E80502002ADAD1A06BC0B142F673
:102470004941C0F600010165FEF758FC00283FF411
:1024800057AEA06B016D02B0BDE8B040084700BF79
:102490002046FFF7DBFD0020206402B0B0BD00BF86
:1024A000204602B0BDE8B040FFF7D0BD401A216819
:1024B00051E8031F226821F4907142E80313DBB155
:1024C000216851E8031F226821F4907142E8031348
:1024D00093B1216851E8031F226821F4907142E80A
:1024E00003134BB1216851E8031F226821F4907156
:1024F00042E80313002BDAD1216851E8051F226856
:1025000021F0010142E80513DBB1216851E8051F04
:10251000226821F0010142E8051393B1216851E8D6
:10252000051F226821F0010142E805134BB1216823
:1025300051E8051F226821F0010142E80513002B34
:10254000DAD1202184F83E1000212163216851E86E
:10255000031F226821F0100142E80313002B3FF40F
:10256000A1AE216851E8031F226821F0100142E862
:102570000313002B3FF496AE216851E8031F226835
:1025800021F0100142E80313002B3FF48BAE2168C9
:1025900051E8031F226821F0100142E80313002BC9
:1025A000D4D17FE6216A31F8022B6FF35F224260BB
:1025B00021628AE5002804BF0120704710B5044657
:1025C00090F83D0028B9002084F83C00204600F037
:1025D00021F8242084F83D002068C16821F40051CE
:1025E000C160204600F02CFD2068016921F4904173
:1025F0000161416921F02A014161C16841F4005142
:10260000C16000202021206484F83D1084F83E1031
:1026100010BD000070B586B00446016844F60000A5
:10262000C4F20000814201D006B070BD002643F61E
:1026300030010196C4F202010A6900F5E03042F46B
:1026400080220A610A6902F480220192019A0196AD
:102650000A6842F004020A60096801F0040101916D
:1026600001994FF4406101910221CDE90216032145
:1026700004910721059101A9FEF760FD40F21015B4
:1026800046F22800C2F20005C4F202004FF00061D9
:1026900085E843004FF440304FF480624FF480737C
:1026A000C5E908062846C5E90362C5E90566EB6188
:1026B000FEF72EFC002818BFFDF7F2FE27200021B0
:1026C0000022A563AC63FEF797FE2720FEF780FE8D
:1026D00006B070BD70B582B0044690F83E00202868
:1026E0000ED113460A4600294FF0010018BF002BF7
:1026F00002D102B070BD00BF94F83C00012803D1A4
:10270000022002B070BD00BF012084F83C0000260A
:1027100022202663A262A385266484F83E002168F5
:10272000A06B42F6D15C42F62D7E42F65545C0F6CE
:10273000000CC0F6000EC0F600050431C0E90FCE53
:10274000C0E91356FEF796FC0196206801680191D6
:10275000406801900198206984F83C6030B300BF64
:10276000206850E8030F216840F4807041E80302BC
:10277000E2B1206850E8030F216840F4807041E81E
:1027800003029AB1206850E8030F216840F480707A
:1027900041E8030252B1206850E8030F216840F479
:1027A000807041E80302002ADAD100BF206850E8B7
:1027B000050F216840F0010041E80502E2B1206800
:1027C00050E8050F216840F0010041E805029AB188
:1027D000206850E8050F216840F0010041E805023B
:1027E00052B1206850E8050F216840F0010041E82F
:1027F0000502002ADAD100BF206850E8050F2168E1
:1028000040F0400041E80502DAB1206850E8050FC9
:10281000216840F0400041E8050292B1206850E88C
:10282000050F216840F0400041E805024AB12068E8
:1028300050E8050F216840F0400041E80502002AF9
:10284000DAD1002002B070BD40F27000C2F2000088
:1028500000F11201FDF7F2BD704700007047000063
:10286000FEE7000080B540F2E80046F20041C2F207
:102870000000C4F200010322002380E80E0000F1F2
:102880000C014FF4102C4FF4001E81E808508361B6
:102890008383FEF7B5F8002808BF80BDBDE88040FF
:1028A000FDF7FEBD80B582B00020019043F63000F8
:1028B000C4F202000168002241F4001101600068C6
:1028C000002100F40010019001980C20FEF794FD07
:1028D0000C2002B0BDE88040FEF77ABD70B586B02E
:1028E000002543F6300005950095C4F2020001680A
:1028F000002441F0010101600168C4F2020401F00A
:1029000001010091009900950168002241F0080141
:1029100001600168012601F008010091009900950D
:10292000016841F0040101600068012100F0040029
:10293000009000982046FEF7D5FC01A92046CDE97D
:102940000166CDE90355FEF7F9FB06B070BD000046
:1029500080B586B040F2701040F200420021C2F211
:102960000000C4F20002532340F2E73C0591CDE998
:102970000311CDE90011C0E90023C0E9021C016187
:102980008161FFF7B3F8002818BFFDF789FD4FF408
:102990008050029040F27010C2F2000002A9FFF7CE
:1029A0004FF9002818BFFDF77BFD40F27010C2F20E
:1029B00000006946FFF73EF8002818BFFDF770FDDC
:1029C00006B080BD10B540F2B81044F6000C48F2D5
:1029D000A062C2F20000C4F2000CC0F201024FF487
:1029E000805300214FF4806E0C24C0E900C2C0E97E
:1029F0000231C0E904E4C0E90611FFF7DBFD00285D
:102A000008BF10BDBDE81040FDF74ABDFEE700005D
:102A1000FEE700007047000040F2B80000214CF6CD
:102A2000CD42C2F20000C4F2F011C3F6CC52C0E9AC
:102A30000012704770470000FEF760BCB0B592B05E
:102A4000002443F640000B94CDE90944CDE9074446
:102A50000594CDE90344CDE901440094C4F2020099
:102A60000168022541F080510160006800F080504B
:102A70000090009847F200000094C4F20000016842
:102A800041F480410160006800F4804000900098AB
:102A90000120099010200A9008200E90A820CDE96E
:102AA0000F050420119006A80695CDE90C54FEF7F9
:102AB000EDFD28B1EFF3108072B600BFFEE700BF56
:102AC0000F20CDE901054FF4A05004904FF4805041
:102AD000059001A805210394FEF7CAFC20B1EFF38D
:102AE000108072B6FEE700BF12B0B0BD4EF688503F
:102AF000CEF20000016841F47001016070470000EF
:102B000040F27010C2F20000FFF76AB910B540F64B
:102B1000FF3E0368C4F2000E40F2004C7045C4F260
:102B2000010C27DCB0F1804F31D040F20042C4F2FA
:102B3000000290422BD040F60002C4F20002904204
:102B400025D041F6FF72C4F20002904229DC7045A4
:102B50003CDCB0F1804F5FD040F20042C4F2000292
:102B6000904259D040F60002C4F20002904253D085
:102B700056E000BF40F60042C4F20002904206D088
:102B8000604504D00022C4F201029042D9D14A68C3
:102B900023F07003134341F6FF72C4F20002904227
:102BA000D5DD43F6FF72C4F20102904222DC42F20C
:102BB0000002C4F2000290422ED00022C4F20102B0
:102BC000904229D0604527D02AE000BF40F600425D
:102BD000C4F2000290421FD041F60002C4F200028B
:102BE000904219D041F60042C4F20002904213D044
:102BF00016E000BF44F20002C4F2010290420BD082
:102C000044F60002C4F20102904205D044F20042B0
:102C1000C4F20102904203D1CA6823F44073134303
:102C200023F080024B69D1F800E08C681A430260FF
:102C3000C46240F48062C0F828E0624504BF0969BC
:102C400001630121416110BD806B0021C185C184F8
:102C5000FFF7FCB9806B01684A6990F83D30212B81
:102C60002DD112F080022AD00021C184016851E8E0
:102C7000031F026821F0C00142E80313DBB10168C1
:102C800051E8031F026821F0C00142E8031393B129
:102C9000016851E8031F026821F0C00142E80313F4
:102CA0004BB1016851E8031F026821F0C00142E8FE
:102CB0000313002BDAD1202180F83D100168496907
:102CC00090F83E20222A40F07D8011F0400179D01A
:102CD0000021C185016851E8031F026821F4907149
:102CE00042E80313BBB3016851E8031F026821F4F3
:102CF000907142E8031373B3016851E8031F02683F
:102D000021F4907142E803132BB3016851E8031FCB
:102D1000026821F4907142E80313002BDAD11AE023
:102D2000016851E8051F026821F0010142E805131E
:102D3000DBB1016851E8051F026821F0010142E89A
:102D4000051393B1016851E8051F026821F00101E4
:102D500042E805134BB1016851E8051F026821F0F4
:102D6000010142E80513002BDAD1016B012924D1BE
:102D7000016851E8031F026821F0100142E80313C3
:102D8000DBB1016851E8031F026821F0100142E83D
:102D9000031393B1016851E8031F026821F0100189
:102DA00042E803134BB1016851E8031F026821F0A8
:102DB000100142E80313002BDAD1202180F83E10E5
:102DC00000210163016C41F010010164FFF73EB97D
:102DD0000168806B0968C90500F19F800021C185E9
:102DE000016851E8031F026821F4807142E803136F
:102DF000E3B1016851E8031F026821F4807142E8E1
:102E000003139BB1016851E8031F026821F480712C
:102E100042E8031353B1016851E8031F026821F42B
:102E2000807142E80313002BDAD100BF016851E83A
:102E3000051F026821F0010142E80513BBB30168D8
:102E400051E8051F026821F0010142E8051373B340
:102E5000016851E8051F026821F0010142E80513ED
:102E60002BB3016851E8051F026821F0010142E817
:102E70000513002BDAD11AE0016851E8051F02683A
:102E800021F0400142E80513DBB1016851E8051F5C
:102E9000026821F0400142E8051393B1016851E84E
:102EA000051F026821F0400142E805134BB101689B
:102EB00051E8051F026821F0400142E80513002B8C
:102EC000DAD1202180F83E10016B012925D100BF05
:102ED000016851E8031F026821F0100142E8031362
:102EE000DBB1016851E8031F026821F0100142E8DC
:102EF000031393B1016851E8031F026821F0100128
:102F000042E803134BB1016851E8031F026821F046
:102F1000100142E80313002BDAD1016B012918BF1D
:102F2000FFF792BC818DFFF78FB80000806B016BBB
:102F3000012918BFFFF790BC818D4908FFF784B8BD
:102F400081B090F83E10222921D183680246B3F562
:102F5000805F09D152F8281F52F8183C002B63D02B
:102F600003685B680AE000BF52F8281F13B90369C1
:102F7000002BF5D003685B6803F07F030B701168CA
:102F800001311160C18D01390A04C18502D001B03F
:102F9000704700BF0168CA6822F02002CA60CA6890
:102FA00022F48072CA604A6922F001024A6120213B
:102FB00080F83E10016B01293ED10021016300BF62
:102FC000016851E8031F026821F0100142E8031371
:102FD000DBB1016851E8031F026821F0100142E8EB
:102FE000031393B1016851E8031F026821F0100137
:102FF00042E803134BB1016851E8031F026821F056
:10300000100142E80313002BDAD101680A68D206E6
:1030100006D5002200920A68009249680091009942
:10302000818D01B0FFF710B8026852686FF35F221C
:1030300021F8022B8162A5E701B0FFF705BC000073
:1030400010B504460068D4E902C22369016921F47D
:10305000405111430161626943EA0C01E369114384
:10306000C268194349F20C639A431143C160416934
:10307000A26921F4407141F20043114340F480629F
:10308000C4F201039A42416102D1FEF7B5FA01E0B0
:10309000FEF79EFAE16963681922B1F5004FA0FBC3
:1030A000020123D15A00DB0FFDF7DEF848F21F5171
:1030B000C5F2EB11A0FB01235A094FF69C73C0F631
:1030C000FF7303F1805302FB0300322303EBC000C4
:1030D000A0FB01014FF4F87000EA111000EB0210A0
:1030E000C1F3421108442168886010BD9A009B0F0B
:1030F000FDF7BAF848F21F51C5F2EB11A0FB01230E
:103100005A094FF69C73C0F6FF7302FB030032238B
:1031100003EB0010A0FB0101F02000EA511000EBCE
:103120000210C1F3431108442168886010BD0000FB
:1031300040F2B810C2F20000FEF78ABFFEE70000BE
:1031400010B58AB040F2E80401200021C2F2000468
:103150000890CDE90610CDE90011CDE90211CDE9C5
:10316000041169462046FDF719FA2046FDF75AFD7D
:1031700020460221FDF79AF90AB010BDFEF7CCF8FF
:10318000FFF75CFCFFF7AAFBFFF78CFBFFF71AFCCD
:10319000FFF768FBFFF7DCFB40F2B81040F270016C
:1031A000C2F20000C2F200011222FFF793FAFFF709
:1031B000C7FFFFF731FC40F27010C2F20000FEF7CB
:1031C000E9FCC820FDF7A6FFFEE7F1EE100A4FF676
:1031D000FF71C0F2C03120EA010040F04070E1EE22
:1031E000100A704700000000000000000102030404
:1031F000060708090000000001020304000610167B
:103200000006101628320008000000201000000000
:10321000C40100083832000810000020F007000048
:10322000E0010008000000000100000010000000A4
:083230000024F400000000007E
:040000050800018965
:00000001FF
